:100000000C9431000C944E000C944E000C944E0055
:100010000C944E000C944E000C944E000C944E0028
:100020000C944E000C944E000C944E000C944E0018
:100030000C944E000C944E000C944E000C944E0008
:100040000C944E000C944E000C944E000C944E00F8
:100050000C944E009103C403F60325046E04B70408
:10006000E50411241FBECFE5D8E0DEBFCDBF11E00F
:10007000A0E6B0E0E4E9F4E102C005900D92AC36F0
:10008000B107D9F721E0ACE6B1E001C01D92AD3770
:10009000B207E1F70E94F6090C94480A0C9400009C
:1000A000FC0180818823E1F090E001C0922F21E0E3
:1000B000290FDF01A20FB11D8C918111F7CF992378
:1000C0008CF031E0DF01A90FB11D97FDBA952C919D
:1000D0002053239F800D1124330F91509AF70895D8
:1000E00080E0089580E008950E94820560E080E04D
:1000F0000E949005E0916D01F0E0EE0FFF1FEE0F02
:10010000FF1FE750FF4F808191810E94210760E02F
:1001100081E00E949005E0916D01F0E0EE0FFF1F7D
:10012000EE0FFF1FE750FF4F828193810E9421074E
:1001300065E080E00E94900510926000EFE6F1E03B
:1001400089E791E01192E817F907E1F710926E0143
:1001500010926C0185E080936100089590ED980FF6
:100160009A3050F4E0916E0191E09E0F90936E01F1
:10017000F0E0E159FE4F80830E949006089580913F
:100180006D01811155C080916300882301F1813098
:1001900009F028C10E94820560E080E00E9490057D
:1001A00084E790E00E94210762E081E00E949005D0
:1001B00085EA90E00E94210761E081E00E949005BD
:1001C0008EE70E94900681E08093620008958091FE
:1001D0006200882381F0813009F004C161E00E944F
:1001E0008C0761E080E00E9490058EE70E949006F7
:1001F0001092620008950E94820560E080E00E94F3
:10020000900584E790E00E94210762E081E00E946F
:10021000900585EA90E00E94210761E081E00E945C
:1002200090058EE70E94900681E080936200089519
:10023000853091F580916300882391F0813009F039
:10024000D1C061E080E00E948C0761E081E00E9403
:1002500090058EE70E94900681E0809362000895E9
:100260000E94820562E080E00E9490058DED90E0A2
:100270000E94210761E081E00E9490058EE70E94C4
:10028000900681E08093620062E00E9490058BEE10
:1002900090E00E942107089580916300882309F46B
:1002A00054C0813009F09EC0809162008823F1F132
:1002B000813009F097C00E94820562E080E00E94D0
:1002C000900520916D0130E021503109220F331F3C
:1002D000C901880F991F880F991F880F991F821BCA
:1002E000930B8B559F4F0E94210762E081E00E9493
:1002F000900520916D0130E0220F331FC901880F56
:10030000991F880F991F880F991F821B930B8B557C
:100310009F4F0E94210761E081E00E9490058EE7D7
:100320000E94900681E080936200089561E080E081
:100330000E948C0761E081E00E9490058EE70E9498
:10034000900681E080936200089580916200882386
:1003500081F0813009F046C061E00E948C0761E0C5
:1003600080E00E9490058EE70E9490061092620045
:1003700008950E94820562E080E00E94900520912D
:100380006D0130E0220F331FC901880F991F880FBC
:10039000991F880F991F821B930B8B559F4F0E94AB
:1003A000210762E081E00E94900520916D0130E01C
:1003B0002F5F3F4F220F331FC901880F991F880FEE
:1003C000991F880F991F821B930B8B559F4F0E947B
:1003D000210761E080E00E9490058EE70E94900670
:1003E00010926200089590916F01992361F090E05E
:1003F0009F5FE92FF0E0E159FE4F20812111F8CFF6
:10040000923008F090C090ED980F9A3098F4E091F7
:100410006E0191E09E0F90936E01F0E0E159FE4F66
:100420008083909161009F5F909361000E9490068D
:1004300080E008958F3289F410926C016091610020
:1004400080E00E949005E0916C01F0E0E156FF4FE2
:1004500080810E94900680E008958B32C9F4E0917B
:100460006E0181E08E0F80936E01F0E0E159FE4F46
:10047000A0916C01B0E0A156BF4F8C918083809118
:1004800061008F5F8093610010926C0180E008959D
:100490008A32F9F490916C019F5F8BEA989F812DCD
:1004A000112486958695282F220F820F880F981B7E
:1004B00090936C016091610080E00E949005E09152
:1004C0006C01F0E0E156FF4F80810E94900680E0D1
:1004D00008958D3251F580916C01815018F0809310
:1004E0006C0103C085E080936C0190916C018BEAF4
:1004F000989F812D112486958695282F220F820F93
:10050000880F981B90936C016091610080E00E94BD
:100510009005E0916C01F0E0E156FF4F80810E9470
:10052000900680E0089588E0089584E00895909111
:100530006F01992359F090E09F5FE92FF0E0E159B6
:10054000FE4F20812111F8CF983090F490ED980F54
:10055000923080F4E0916E0191E09E0F90936E01D5
:10056000F0E0E159FE4F80830E94900680E00895FC
:1005700088E0089584E00895FC018081882311F1CA
:1005800090E001C0922F21E0290FDF01A20FB11DE1
:100590008C918111F7CF9923BCF031E0DF01A90FD5
:1005A000B11D97FDBA954C9120ED240F2A3010F023
:1005B00029EC240F239F800D11243295307F915018
:1005C0006AF7089580E0089580E008951092790117
:1005D00081E08093630010926D0180936200EFE6EA
:1005E000F1E089E791E01192E817F907E1F781E07E
:1005F0008093600010926C0185E0809361000E94FE
:10060000820560E080E00E94900582E890E00E9410
:10061000210761E081E00E9490058CE890E00E9453
:1006200021072FEF81EE94E0215080409040E1F7C8
:1006300000C000008EE20E9490062FEF81EE94E051
:10064000215080409040E1F700C000008EE20E94FF
:1006500090062FEF81EE94E0215080409040E1F72A
:1006600000C000000E9482050E94BF0061E08091EE
:1006700062000E9490058EE70E9490060895CF9335
:10068000DF930E94EA07C82F843509F4CEC1833472
:10069000D9F51092790181E08093630010926D0189
:1006A00080936200EFE6F1E089E791E011928E1706
:1006B0009F07E1F781E08093600010926C0185E074
:1006C000809361000E9482050E94BF0061E08091DA
:1006D00062000E9490058EE70E9490068091790149
:1006E000833009F4B2C038F4813009F44DC082304F
:1006F00009F47CC09AC1853009F439C108F4EEC010
:10070000863009F462C191C1E09179018E2F90E0A9
:100710008730910508F089C1FC01E65DFF4F0C941C
:10072000200AC23381F480916D018F5F863019F009
:1007300080936D0102C010926D0181E0809363008F
:100740000E94BF0072C1C83379F480916D0181505D
:1007500018F080936D0103C085E080936D011092C5
:1007600063000E94BF0061C1CD3309F05EC1E0911A
:100770006D01F0E0EF5EFE4F8081809379010E9471
:1007800074001092600051C18091600081110E943C
:100790007400CD33C9F4E0916E01F0E0E159FE4FF1
:1007A00010828FE691E00E945000C82F65E081E042
:1007B0000E9490056C2F70E080E090E00E9494060B
:1007C00081E08093600031C18C2F0E9497028830B5
:1007D00009F02BC165E081E00E94900587E990E077
:1007E0000E94210781E0809360001FC1809160001A
:1007F00081110E947400CD33B1F4E0916E01F0E0FC
:10080000E159FE4F10828FE691E00E945000C82F00
:1008100065E081E00E9490058C2F0E94530781E0E3
:100820008093600002C18C2F0E949702883009F0EB
:10083000FCC065E081E00E94900587E990E00E949D
:10084000210781E080936000F0C0809160008111F9
:100850000E947400CD33F1F5E0916E01F0E0E159B2
:10086000FE4F108280916F018823F1F090E0C0E08C
:10087000D0E09E01220F331FCC0FDD1FCC0FDD1FF8
:10088000CC0FDD1FC20FD31F8053C80FD11D9F5F38
:10089000E92FF0E0E159FE4F80818111EACFCF3F8F
:1008A000D10509F058F402C0C0E0D0E065E081E075
:1008B0000E9490058C2F0E94390708C065E081E0F6
:1008C0000E94900587E990E00E94210781E08093D3
:1008D0006000ABC08C2F0E94AE00A7C0809160006A
:1008E00081110E947400CD33F1F5E0916E01F0E0CA
:1008F000E159FE4F108280916F018823F1F090E062
:10090000C0E0D0E09E01220F331FCC0FDD1FCC0FC3
:10091000DD1FCC0FDD1FC20FD31F8053C80FD11DA9
:100920009F5FE92FF0E0E159FE4F80818111EACF0E
:10093000CF3FD10509F058F402C0C0E0D0E065E037
:1009400081E00E9490058C2F0E94530708C065E04B
:1009500081E00E94900587E990E00E94210781E0F4
:100960008093600062C08C2F0E94AE005EC08091B8
:10097000600081110E947400CD33B1F4E0916E01EA
:10098000F0E0E159FE4F10828FE691E00E94BC0238
:10099000C82F65E081E00E9490058C2F0E943907E6
:1009A00081E08093600041C08C2F0E94F301883069
:1009B000E1F565E081E00E94900587E990E00E9402
:1009C000210781E08093600030C080916000811138
:1009D0000E947400CD33C9F4E0916E01F0E0E1595A
:1009E000FE4F10828FE691E00E94BC02C82F65E0A6
:1009F00081E00E9490056C2F70E080E090E00E9402
:100A0000940681E08093600010C08C2F0E94F30157
:100A1000883059F465E081E00E94900587E990E014
:100A20000E94210781E080936000DF91CF910895BB
:100A3000CF93C82F60E08FE00E943E098FEC97E0D3
:100A40000197F1F700C0000060E081E00E943E09DC
:100A50006C2F661F6627661F86E00E943E09C6FB54
:100A6000662760F985E00E943E09C5FB662760F9AC
:100A700084E00E943E09C4FB662760F983E00E947F
:100A80003E0961E082E00E943E098FE99FE0019704
:100A9000F1F700C0000060E082E00E943E098FE9AB
:100AA0009FE00197F1F700C00000C3FB662760F9E3
:100AB00086E00E943E09C2FB662760F985E00E943D
:100AC0003E09C1FB662760F984E00E943E096C2F55
:100AD000617083E00E943E0961E082E00E943E096D
:100AE0008FE99FE00197F1F700C0000060E082E02D
:100AF0000E943E098FE99FE00197F1F700C00000D6
:100B0000CF91089581E00E9418058FE99FE0019739
:100B1000F1F700C0000010927C0110927B01089553
:100B200080937B0160937C01811106C080E8860F71
:100B30000E94180580E00895813031F480EC860F22
:100B40000E94180580E0089584E00895CF93DF9314
:100B5000C82FD62F613031F460917C0180917B01E8
:100B60000E94900560E08FE00E943E098FEC97E0C4
:100B70000197F1F700C0000061E081E00E943E09AA
:100B80006C2F661F6627661F86E00E943E09C6FB23
:100B9000662760F985E00E943E09C5FB662760F97B
:100BA00084E00E943E09C4FB662760F983E00E944E
:100BB0003E0961E082E00E943E098FE99FE00197D3
:100BC000F1F700C0000060E082E00E943E098FE97A
:100BD0009FE00197F1F700C00000C3FB662760F9B2
:100BE00086E00E943E09C2FB662760F985E00E940C
:100BF0003E09C1FB662760F984E00E943E096C2F24
:100C0000617083E00E943E0961E082E00E943E093B
:100C10008FE99FE00197F1F700C0000060E082E0FB
:100C20000E943E098FE99FE00197F1F700C00000A4
:100C3000D130B1F480917C018F3079F480917B01C7
:100C4000813029F410927B0110927C0109C08F5FE2
:100C500080937B0110927C0103C08F5F80937C01A5
:100C6000DF91CF9108950F931F93CF93DF9310924D
:100C70007C0110927B0110927A012FE788E391E0CA
:100C8000215080409040E1F700C0000060E08FE01C
:100C90000E943E098FEC97E00197F1F700C0000039
:100CA00082E00E94180588E20E9418058FEC97E008
:100CB0000197F1F700C000008CE00E9418058FEC4E
:100CC00097E00197F1F700C0000081E00E9418054D
:100CD0008FE99FE00197F1F700C0000086E00E94D5
:100CE000180580E40E941805CCE2D1E004E311E08D
:100CF00060E089910E94A605C017D107C9F78091CD
:100D00007A018F5F80937A0180E80E941805109223
:100D10007C0110927B01DF91CF911F910F9108957B
:100D200061E00E94A60508954F925F926F927F92B4
:100D3000AF92BF92CF92DF92EF92FF920F931F93E9
:100D4000CF93DF93CDB7DEB72B970FB6F894DEBF06
:100D50000FBECDBF6B017C01FE0131968BE0DF0140
:100D60001D928A95E9F7FF200CF04FC08DE20E949A
:100D70009006F094E094D094C094C11CD11CE11C66
:100D8000F11CC114D104E104F10421F480E30E94B8
:100D9000900642C010E00F2EFAE04F2E512C612C2D
:100DA000712CF02D01C0102F01E0010FAA24A39493
:100DB000B12CAC0EBD1EA10EB11C17FDBA94C7011B
:100DC000B601A30192010E94010A605DF5016083F2
:100DD000C22ED32EE42EF52EC114D104E104F10469
:100DE00011F71123CCF0FF24FA94F10EE1E0F0E0CA
:100DF000EC0FFD1FE10FF11D17FDFA9580810E9498
:100E000090061F2DFF207CF707C0C114D104E10418
:100E1000F10409F0BFCFBACF2B960FB6F894DEBF1E
:100E20000FBECDBFDF91CF911F910F91FF90EF903B
:100E3000DF90CF90BF90AF907F906F905F904F907A
:100E400008950F931F93CF93FC01892B71F080813C
:100E5000882359F08F01C0E00E949006CF5FF8010F
:100E6000EC0FF11D80818111F7CFCF911F910F9170
:100E700008950F931F93CF93DF93C7E0D0E0082F1F
:100E800010E0C8010C2E02C0959587950A94E2F7F0
:100E90008170805D0E949006219798F7DF91CF9135
:100EA0001F910F9108951F93CF93DF93CDB7DEB7B6
:100EB00060970FB6F894DEBF0FBECDBF182F80E14C
:100EC000E4E6F0E0DE01119601900D928A95E1F7DB
:100ED00089E291E00E942107812F82958F70E1E0E5
:100EE000F0E0EC0FFD1FE80FF11D80810E949006DD
:100EF0001F70E1E0F0E0EC0FFD1FE10FF11D8081BC
:100F00000E94900660960FB6F894DEBF0FBECDBF6C
:100F1000DF91CF911F9108950E949005843009F4CC
:100F200057C060E08FE00E943E098FEC97E0019788
:100F3000F1F700C0000061E081E00E943E0960E03E
:100F400086E00E943E0960E085E00E943E0960E084
:100F500084E00E943E0960E083E00E943E0961E077
:100F600082E00E943E098FE99FE00197F1F700C0FF
:100F7000000060E082E00E943E098FE99FE0019757
:100F8000F1F700C0000060E086E00E943E0960E0EA
:100F900085E00E943E0960E084E00E943E0960E036
:100FA00083E00E943E0961E082E00E943E098FE9F1
:100FB0009FE00197F1F700C0000060E082E00E942E
:100FC0003E098FE99FE00197F1F700C0000080E043
:100FD000089508955F926F927F928F929F92AF9241
:100FE000BF92CF92DF92EF92FF920F931F93CF9316
:100FF000DF930F2EF8E3AF2EF1E0BF2EF02D0CE3C0
:1010000011E0E50161E089910E943E090C171D077E
:10101000C9F70F2EFCE3CF2EF1E0DF2EF02D0F2EBF
:10102000FCE48F2EF1E09F2EF02D0F2EF4E55F2EC5
:10103000F02D0F2EF8E3EF2EF1E0FF2EF02DF5014D
:1010400061905F0160E0862D0E943E09C4E3D1E01B
:1010500086017990872D0E94C309811107C0872DD1
:101060000E94C3098823D9F3F80150800F5F1F4FF6
:10107000CE15DF0571F761E0862D0E943E09F4E090
:10108000CF0ED11CC814D904D1F6852DDF91CF9194
:101090001F910F91FF90EF90DF90CF90BF90AF9096
:1010A0009F908F907F906F905F900895ECE4F1E0B7
:1010B00080E041E050E09191282F269526952695D5
:1010C000382F3770913009F449C020F0923009F47C
:1010D00089C0CFC02130A9F028F0223009F1233097
:1010E00071F1C7C09AB3BA0102C0660F771F3A9573
:1010F000E2F79B01962B9ABB9BB3209529232BBB30
:10110000B8C097B3BA0102C0660F771F3A95E2F7ED
:101110009B01962B97BB98B32095292328BBA9C088
:1011200094B3BA0102C0660F771F3A95E2F79B01AC
:10113000962B94BB95B32095292325BB9AC091B3D8
:10114000BA0102C0660F771F3A95E2F79B01962B12
:1011500091BB92B32095292322BB8BC02130A9F0EB
:1011600028F0223009F1233071F183C09AB3BA011B
:1011700002C0660F771F3A95E2F79B0120959223F4
:101180009ABB9BB329232BBB74C097B3BA0102C08F
:10119000660F771F3A95E2F79B012095922397BB44
:1011A00098B3292328BB65C094B3BA0102C0660F67
:1011B000771F3A95E2F79B012095922394BB95B354
:1011C000292325BB56C091B3BA0102C0660F771F11
:1011D0003A95E2F79B012095922391BB92B3292384
:1011E00022BB47C02130B1F028F0223019F1233062
:1011F00089F13FC09AB3BA0102C0660F771F3A95D2
:10120000E2F79B01362F309593239ABB9BB3292B92
:101210002BBB2FC097B3BA0102C0660F771F3A9558
:10122000E2F79B01362F3095932397BB98B3292B78
:1012300028BB1FC094B3BA0102C0660F771F3A954E
:10124000E2F79B01362F3095932394BB95B3292B5E
:1012500025BB0FC091B3BA0102C0660F771F3A9544
:10126000E2F79B01362F3095932391BB92B3292B44
:1012700022BB8F5F803209F01ECF0895982F96957C
:101280009695969587706130E1F5913099F028F048
:101290009230E9F0933041F108954BB321E030E012
:1012A000B90102C0660F771F8A95E2F7CB01842B44
:1012B0008BBB089548B321E030E0B90102C0660F4E
:1012C000771F8A95E2F7CB01842B88BB089545B33D
:1012D00021E030E0B90102C0660F771F8A95E2F77E
:1012E000CB01842B85BB089542B321E030E0B901E6
:1012F00002C0660F771F8A95E2F7CB01842B82BB71
:10130000089561113FC09130A1F028F09230F9F0BA
:10131000933059F108954BB321E030E0B90102C098
:10132000660F771F8A95E2F7CB01809584238BBBEC
:10133000089548B321E030E0B90102C0660F771F7D
:101340008A95E2F7CB018095842388BB089545B345
:1013500021E030E0B90102C0660F771F8A95E2F7FD
:10136000CB018095842385BB089542B321E030E012
:10137000B90102C0660F771F8A95E2F7CB0180950D
:10138000842382BB0895282F27708695869586959D
:10139000813079F028F08230A9F08330E1F024C068
:1013A00089B390E002C0959587952A95E2F7817000
:1013B000089586B390E002C0959587952A95E2F747
:1013C0008170089583B390E002C0959587952A9522
:1013D000E2F78170089580B390E002C095958795FB
:1013E0002A95E2F78170089580E008950E945608DA
:1013F0000E9433060E94E9070E94E6020E943F0312
:10140000FDCF052E97FB1EF400940E94180A57FD8D
:1014100007D00E94260A07FC03D04EF40C94180A49
:1014200050954095309521953F4F4F4F5F4F089510
:1014300090958095709561957F4F8F4F9F4F089540
:10144000EE0FFF1F0590F491E02D0994A1E21A2EF2
:10145000AA1BBB1BFD010DC0AA1FBB1FEE1FFF1F58
:10146000A217B307E407F50720F0A21BB30BE40BA8
:10147000F50B661F771F881F991F1A9469F76095EF
:101480007095809590959B01AC01BD01CF010895A9
:04149000F894FFCFFE
:1014940001050101303132333435363738394142B0
:1014A4004344454643686F6F7365204D6F64653AE6
:1014B40020004E756D65726963616C00436F6E76D2
:1014C40065727465722E00496E76616C69640041C0
:1014D400424344454642494E20746F2044454300EC
:1014E40000000042494E20746F2048455800000017
:1014F4000044454320746F2042494E0000000044DC
:10150400454320746F204845580000000048455862
:1015140020746F2042494E00000000484558207452
:101524006F204445430000000023011D01230117DF
:10153400011D0123011D0117011701230117011DBD
:10154400010102030405064845583A200044454376
:101554003A200042494E3A20003078000000000052
:10156400000000001A1B1C1D0C0D0E0F3738392FFC
:101574003435362A3132332D43303D2B0000000000
:101584000000000000000000000000000000000057
:0C15940000000000000002020202000043
:00000001FF
