:100000000C942A000C9447000C9447000C94470071
:100010000C9447000C9447000C9447000C94470044
:100020000C9447000C9447000C9447000C94470034
:100030000C9447000C9447000C9447000C94470024
:100040000C9447000C9447000C9447000C94470014
:100050000C94470011241FBECFE5D8E0DEBFCDBF12
:1000600010E0A0E6B0E0EEE4F6E102C005900D92EB
:10007000AA3CB107D9F720E0AAECB0E001C01D927C
:10008000A83FB207E1F70E94AB080C94250B0C9433
:1000900000001092F4001092F3001092F2001092FF
:1000A000F1001092F0001092E0001092D000109237
:1000B000CF001092CA000895DC018C91882349F08A
:1000C00080E08F5FFD01E80FF11D90819111F9CF64
:1000D000089580E00895DC01FC01E60FF11D8081A8
:1000E0008D3241F56F5F461750F520E030E01EC0BD
:1000F00081E001C080E020E030E0F901EE0FFF1F59
:10010000220F331F220F331F220F331F2E0F3F1FCB
:100110009053290F311D6F5F461730F0FD01E60F38
:10012000F11D90819111E9CF8130D1F43195219564
:10013000310916C0461760F420E030E011C0FD011F
:10014000E60FF11D90819111D3CF20E030E0EECF8A
:10015000FD01E60FF11D90819111CCCF20E030E040
:10016000C9010895DC01FB019081992389F020E009
:1001700030E040E0FD01E20FF31F90834F5F242F3A
:1001800030E0FB01E20FF31F90819111F3CF02C029
:1001900020E030E0FD01E20FF31F108208950F937D
:1001A0001F93CF93DF93EC018B010E945C00F80159
:1001B0009081992389F0382F21E0230FFE01E30F6E
:1001C000F11D9083922F981BF801E90FF11D90818A
:1001D000322F9111F1CF01C0282FC20FD11D1882EB
:1001E000DF91CF911F910F9108954F925F926F927F
:1001F0007F92BF92CF92DF92EF92FF920F931F9365
:10020000CF93DF93CDB7DEB760970FB6F894DEBF1C
:100210000FBECDBF6A011A821982FE0133962EE00D
:10022000DF011D922A95E9F7992364F42DE2FA0182
:10023000208390958095709561957F4F8F4F9F4F4C
:1002400001E001C000E0611571058105910541F4EF
:1002500081E0800FF601E00FF11D90E390833CC038
:1002600010E00F2EFAE04F2E512C612C712CF02D46
:1002700001C01B2DBB24B394B10EEE24E394F12CEA
:10028000EC0EFD1EE10EF11C17FDFA94A301920184
:100290000E94C60A605DD7016C93622F732F842F72
:1002A000952F611571058105910519F711239CF0B2
:1002B00081E0800FF601E00FF11DA1E0B0E0AC0F8E
:1002C000BD1FA10FB11D17FDBA959C919083082FFA
:1002D000115072F701C0802FF601E80FF11D108256
:1002E00060960FB6F894DEBF0FBECDBFDF91CF9101
:1002F0001F910F91FF90EF90DF90CF90BF907F9074
:100300006F905F904F90089561E870E082E00E94E6
:10031000740669E770E083E00E9474061092F400AE
:100320001092F3001092F2001092F1001092F0007F
:100330001092E0001092D0001092CF001092CA00EC
:1003400080E690E00E94FF052FEF80E792E02150C9
:1003500080409040E1F700C000008EE20E94FB0563
:100360002FEF80E792E0215080409040E1F700C0FD
:1003700000008EE20E94FB052FEF80E792E0215003
:1003800080409040E1F700C000000E94ED04089515
:100390008F929F92AF92BF92CF92DF92EF92FF9295
:1003A0000F931F93CF93DF93CDB7DEB72B970FB685
:1003B000F894DEBF0FBECDBF0E949F06082F843584
:1003C00009F48EC28D3309F0F5C18091CA008230E4
:1003D00009F058C08091CE008D3309F053C01A82C5
:1003E0001982FE01339684E0DF011D928A95E9F7B8
:1003F0006091CB007091CC00072E000C880B990BFC
:10040000AE014F5F5F4F0E94F50080EE90E00E94CA
:100410005C0021E0280F2093CF00E82FF0E0E052AD
:10042000FF4F8091CD00808389818823A9F0E22F3E
:1004300091E09E0FF0E0E052FF4F8083892F821BF6
:10044000E1E0F0E0EC0FFD1FE80FF11D8081E92FE6
:100450008111EECF9093CF00E091CF00F0E0E05219
:10046000FF4F108210E0612F80E00E9417061F5F8F
:100470001031C9F760E080E00E94FB0480EE90E05C
:100480000E94FF05E091CF00F0E0E052FF4F1082A4
:1004900010E0612F81E00E9417061F5F1031C9F73D
:1004A0008091E000882359F16091F00020E030E075
:1004B00010E040E071E010C0882369F09B3231F019
:1004C0009D3221F05EEF590F523028F412E0120FE6
:1004D000692F422F372F282F81E0820FE82FF0E07D
:1004E000E052FF4F9081992329F0332329F3609341
:1004F000F0000AC06093F000332319F005C010E04B
:1005000040E08BE28093F00060E080EE90E00E949B
:100510006B006C019093F4008093F30080EE90E008
:100520000E945C004FEF480F612F80EE90E00E9428
:100530006B007C019093F2008093F1009093CC00CB
:100540008093CB008091F0008093CD00833009F43C
:1005500086C020F4823009F460C01BC18B3219F0D0
:100560008D3271F116C146010D2C000CAA08BB0892
:10057000C7010F2C000CAA0BBB0B880E991EAA1EDC
:10058000BB1E40ED50E0C501B4010E94F500CE0C49
:10059000DF1C0D2C000CEE08FF088C149D04AE042B
:1005A000BF0439F460ED70E080EE90E00E94B2008C
:1005B000F0C06CE670E080EE90E00E94B200E9C00E
:1005C00046010D2C000CAA08BB08C7010F2C000C1B
:1005D000AA0BBB0B881A990AAA0ABB0A40ED50E085
:1005E000C501B4010E94F500CE18DF080D2C000CE7
:1005F000EE08FF088C149D04AE04BF0439F460EDCE
:1006000070E080EE90E00E94B200C3C06CE670E043
:1006100080EE90E00E94B200BCC09601D7010E941B
:10062000E50A6B017C0140ED50E00E94F500C60137
:100630000D2C000CAA0BBB0BC816D906EA06FB064C
:1006400039F460ED70E080EE90E00E94B200A1C04D
:100650006CE670E080EE90E00E94B2009AC0E11477
:10066000F10469F46EE670E080ED90E00E94B20063
:100670006CE670E080EE90E00E94B2008AC0B601A5
:10068000DD0C880B990B0E94CD094B015C01B70171
:10069000FF0C880B990B0E94CD099B01AC01C50191
:1006A000B4010E9423096B017C010E9495094B0152
:1006B0005C0118861F82FE01399683E0DF011D92DE
:1006C0008A95E9F7AE01495F5F4FC501B4010E9409
:1006D000F500BE01695F7F4F80ED90E00E94B2009F
:1006E000C501B4010E94CD099B01AC01C701B6014F
:1006F0000E94B60820E030E543EC57E40E94590A16
:100700000E9495096115710581059105D9F01A823C
:100710001982FE01339624E0DF011D922A95E9F744
:10072000AE014F5F5F4F0E94F5006AE670E080ED1A
:1007300090E00E94CF00BE016F5F7F4F80ED90E0A0
:100740000E94CF0020E030E040E05FE3C701B60147
:100750000E94B7080E9495097093F4006093F3001B
:100760001A821982FE01339624E0DF011D922A9538
:10077000E9F7072E000C880B990BAE014F5F5F4F16
:100780000E94F500BE016F5F7F4F80EE90E00E94F7
:10079000B20080ED90E00E945C0060E1681B81E0A7
:1007A0000E94FB0480ED90E00E94FF0582E08093B0
:1007B000CA0094C0833439F40E94ED040E944900B9
:1007C0001092CA008BC091E080ED800F8A3008F053
:1007D00090E0992309F43FC08091CA0081110EC0B6
:1007E000E091CF0081E08E0F8093CF00F0E0E052E7
:1007F000FF4F008381E08093CA0029C0813051F40B
:10080000E091CF008E0F8093CF00F0E0E052FF4FD9
:1008100000831DC08230D9F40E94490010E0612F8E
:1008200080E00E9417061F5F1031C9F760E080E08A
:100830000E94FB04E091CF0081E08E0F8093CF00F7
:10084000F0E0E052FF4F008381E08093CA00802FE8
:100850000E94FB0543C00B3231F00D3221F08EEFC8
:10086000800F8230D8F58091CA008823B9F1813099
:1008700081F4E091CF008E0F8093CF00F0E0E05242
:10088000FF4F008381E08093CA00802F0E94FB0508
:1008900025C0823019F510E0612F80E00E94170614
:1008A0001F5F1031C9F760E080E00E94FB0480EE1A
:1008B00090E00E94FF0580EE90E00E945C0091E0D5
:1008C000980F9093CF00E82FF0E0E052FF4F0083A5
:1008D00081E08093CA00802F0E94FB050093CE0028
:1008E0002B960FB6F894DEBF0FBECDBFDF91CF9130
:1008F0001F910F91FF90EF90DF90CF90BF90AF903E
:100900009F908F900895CF93C82F60E08FE00E9452
:10091000F3078FEC97E00197F1F700C0000060E06B
:1009200081E00E94F3076C2F661F6627661F86E032
:100930000E94F307C6FB662760F985E00E94F30773
:10094000C5FB662760F984E00E94F307C4FB6627B5
:1009500060F983E00E94F30761E082E00E94F30700
:100960008FE99FE00197F1F700C0000060E082E0AE
:100970000E94F3078FE99FE00197F1F700C00000A4
:10098000C3FB662760F986E00E94F307C2FB662777
:1009900060F985E00E94F307C1FB662760F984E0F7
:1009A0000E94F3076C2F617083E00E94F30761E0FF
:1009B00082E00E94F3078FE99FE00197F1F700C002
:1009C000000060E082E00E94F3078FE99FE001975A
:1009D000F1F700C00000CF91089581E00E948304E8
:1009E0008FE99FE00197F1F700C000001092F70037
:1009F0001092F60008958093F6006093F70081113D
:100A000006C080E8860F0E94830480E0089581304C
:100A100031F480EC860F0E94830480E0089584E026
:100A20000895CF93DF93C82FD62F613031F46091B2
:100A3000F7008091F6000E94FB0460E08FE00E94C6
:100A4000F3078FEC97E00197F1F700C0000061E039
:100A500081E00E94F3076C2F661F6627661F86E001
:100A60000E94F307C6FB662760F985E00E94F30742
:100A7000C5FB662760F984E00E94F307C4FB662784
:100A800060F983E00E94F30761E082E00E94F307CF
:100A90008FE99FE00197F1F700C0000060E082E07D
:100AA0000E94F3078FE99FE00197F1F700C0000073
:100AB000C3FB662760F986E00E94F307C2FB662746
:100AC00060F985E00E94F307C1FB662760F984E0C6
:100AD0000E94F3076C2F617083E00E94F30761E0CE
:100AE00082E00E94F3078FE99FE00197F1F700C0D1
:100AF000000060E082E00E94F3078FE99FE0019729
:100B0000F1F700C00000D130B1F48091F7008F30D0
:100B100079F48091F600813029F41092F600109259
:100B2000F70009C08F5F8093F6001092F70003C0B2
:100B30008F5F8093F700DF91CF9108950F931F93FC
:100B4000CF93DF931092F7001092F6001092F50009
:100B50002FE788E391E0215080409040E1F700C00A
:100B6000000060E08FE00E94F3078FEC97E00197B0
:100B7000F1F700C0000082E00E94830488E20E9436
:100B800083048FEC97E00197F1F700C000008FE03D
:100B90000E9483048FEC97E00197F1F700C00000FA
:100BA00081E00E9483048FE99FE00197F1F700C084
:100BB000000086E00E94830480E40E948304C9E868
:100BC000D0E001E910E060E089910E941105C017B2
:100BD000D107C9F78091F5008F5F8093F50080E819
:100BE0000E9483041092F7001092F600DF91CF91DB
:100BF0001F910F91089561E00E94110508950F93D0
:100C00001F93CF93FC01892B71F08081882359F0C9
:100C10008F01C0E00E94FB05CF5FF801EC0FF11DD2
:100C200080818111F7CFCF911F910F9108950E947C
:100C3000FB04843009F457C060E08FE00E94F307A2
:100C40008FEC97E00197F1F700C0000061E081E0D0
:100C50000E94F30760E086E00E94F30760E085E011
:100C60000E94F30760E084E00E94F30760E083E005
:100C70000E94F30761E082E00E94F3078FE99FE0A2
:100C80000197F1F700C0000060E082E00E94F307E6
:100C90008FE99FE00197F1F700C0000060E086E077
:100CA0000E94F30760E085E00E94F30760E084E0C3
:100CB0000E94F30760E083E00E94F30761E082E0B6
:100CC0000E94F3078FE99FE00197F1F700C0000051
:100CD00060E082E00E94F3078FE99FE00197F1F75F
:100CE00000C0000080E008950F931F93CF93DF931F
:100CF0009091F5009830E8F49FEF980F9730C8F482
:100D00008B01880F880F880F805C0E948304E801A4
:100D1000085F1F4F60E089910E941105C017D1073D
:100D2000C9F78091F5008F5F8093F50080E80E94FD
:100D30008304DF91CF911F910F91089508955F92E1
:100D40006F927F928F929F92AF92BF92CF92DF92DB
:100D5000EF92FF920F931F93CF93DF930F2EF5E93E
:100D6000AF2EF0E0BF2EF02D09E910E0E50161E0C3
:100D700089910E94F3070C171D07C9F70F2EF9E997
:100D8000CF2EF0E0DF2EF02D0F2EF9EA8F2EF0E0BF
:100D90009F2EF02D0F2EF4E55F2EF02D0F2EF5E98E
:100DA000EF2EF0E0FF2EF02DF50161905F0160E085
:100DB000862D0E94F307C1E9D0E086017990872D46
:100DC0000E947808811107C0872D0E947808882327
:100DD000D9F3F80150800F5F1F4FCE15DF0571F773
:100DE00061E0862D0E94F307F4E0CF0ED11CC814F9
:100DF000D904D1F6852DDF91CF911F910F91FF90EE
:100E0000EF90DF90CF90BF90AF909F908F907F90AA
:100E10006F905F900895E9EAF0E080E041E050E0F3
:100E20009191282F269526952695382F3770913049
:100E300009F449C020F0923009F489C0CFC02130B4
:100E4000A9F028F0223009F1233071F1C7C09AB31C
:100E5000BA0102C0660F771F3A95E2F79B01962B05
:100E60009ABB9BB3209529232BBBB8C097B3BA017B
:100E700002C0660F771F3A95E2F79B01962B97BB4E
:100E800098B32095292328BBA9C094B3BA0102C006
:100E9000660F771F3A95E2F79B01962B94BB95B3AB
:100EA0002095292325BB9AC091B3BA0102C0660FD1
:100EB000771F3A95E2F79B01962B91BB92B3209551
:100EC000292322BB8BC02130A9F028F0223009F160
:100ED000233071F183C09AB3BA0102C0660F771F45
:100EE0003A95E2F79B01209592239ABB9BB3292365
:100EF0002BBB74C097B3BA0102C0660F771F3A9537
:100F0000E2F79B012095922397BB98B3292328BB36
:100F100065C094B3BA0102C0660F771F3A95E2F735
:100F20009B012095922394BB95B3292325BB56C0E2
:100F300091B3BA0102C0660F771F3A95E2F79B01A1
:100F40002095922391BB92B3292322BB47C0213025
:100F5000B1F028F0223019F1233089F13FC09AB363
:100F6000BA0102C0660F771F3A95E2F79B01362F50
:100F7000309593239ABB9BB3292B2BBB2FC097B3E0
:100F8000BA0102C0660F771F3A95E2F79B01362F30
:100F90003095932397BB98B3292B28BB1FC094B3DC
:100FA000BA0102C0660F771F3A95E2F79B01362F10
:100FB0003095932394BB95B3292B25BB0FC091B3D8
:100FC000BA0102C0660F771F3A95E2F79B01362FF0
:100FD0003095932391BB92B3292B22BB8F5F803234
:100FE00009F01ECF0895982F96959695969587703F
:100FF0006130E1F5913099F028F09230E9F09330CA
:1010000041F108954BB321E030E0B90102C0660F11
:10101000771F8A95E2F7CB01842B8BBB089548B3E9
:1010200021E030E0B90102C0660F771F8A95E2F730
:10103000CB01842B88BB089545B321E030E0B90192
:1010400002C0660F771F8A95E2F7CB01842B85BB20
:10105000089542B321E030E0B90102C0660F771F66
:101060008A95E2F7CB01842B82BB089561113FC0C2
:101070009130A1F028F09230F9F0933059F10895B1
:101080004BB321E030E0B90102C0660F771F8A95AB
:10109000E2F7CB01809584238BBB089548B321E010
:1010A00030E0B90102C0660F771F8A95E2F7CB01E5
:1010B0008095842388BB089545B321E030E0B901D1
:1010C00002C0660F771F8A95E2F7CB0180958423D3
:1010D00085BB089542B321E030E0B90102C0660F3C
:1010E000771F8A95E2F7CB018095842382BB089510
:1010F000282F2770869586958695813079F028F07F
:101100008230A9F08330E1F024C089B390E002C0BE
:10111000959587952A95E2F78170089586B390E0BA
:1011200002C0959587952A95E2F78170089583B35B
:1011300090E002C0959587952A95E2F78170089511
:1011400080B390E002C0959587952A95E2F781706B
:10115000089580E008950E940B070E949E050E945A
:101160009E060E9484010E94C801FDCF5058BB27F3
:10117000AA270E94CE080C941F0A0E94110A38F078
:101180000E94180A20F039F49F3F19F426F40C94B9
:101190000E0A0EF4E095E7FB0C94080AE92F0E9472
:1011A000300A58F3BA17620773078407950720F0CF
:1011B00079F4A6F50C94520A0EF4E0950B2EBA2F92
:1011C000A02D0B01B90190010C01CA01A00111244D
:1011D000FF27591B99F0593F50F4503E68F11A16F9
:1011E000F040A22F232F342F4427585FF3CF46958A
:1011F00037952795A795F0405395C9F77EF41F16AC
:10120000BA0B620B730B840BBAF09150A1F0FF0F75
:10121000BB1F661F771F881FC2F70EC0BA0F621F61
:10122000731F841F48F4879577956795B795F79551
:101230009E3F08F0B0CF9395880F08F09927EE0FE6
:101240009795879508950E9437090C941F0A0E946C
:10125000180A58F00E94110A40F029F45F3F29F063
:101260000C94080A51110C94530A0C940E0A0E9413
:10127000300A68F39923B1F3552391F3951B550B6D
:10128000BB27AA2762177307840738F09F5F5F4F59
:10129000220F331F441FAA1FA9F335D00E2E3AF098
:1012A000E0E832D091505040E695001CCAF72BD0B0
:1012B000FE2F29D0660F771F881FBB1F2617370701
:1012C0004807AB07B0E809F0BB0B802DBF01FF2733
:1012D00093585F4F3AF09E3F510578F00C94080AFE
:1012E0000C94530A5F3FE4F3983ED4F386957795C8
:1012F0006795B795F7959F5FC9F7880F911D9695EC
:10130000879597F90895E1E0660F771F881FBB1F47
:10131000621773078407BA0720F0621B730B840BF4
:10132000BA0BEE1F88F7E09508950E949C09689417
:10133000B1110C94530A08950E94380A88F09F57FF
:1013400098F0B92F9927B751B0F0E1F0660F771FE9
:10135000881F991F1AF0BA95C9F714C0B13091F0DF
:101360000E94520AB1E008950C94520A672F782F18
:101370008827B85F39F0B93FCCF3869577956795A4
:10138000B395D9F73EF490958095709561957F4F10
:101390008F4F9F4F0895E89409C097FB3EF49095B6
:1013A0008095709561957F4F8F4F9F4F9923A9F03E
:1013B000F92F96E9BB279395F695879577956795CD
:1013C000B795F111F8CFFAF4BB0F11F460FF1BC011
:1013D0006F5F7F4F8F4F9F4F16C0882311F096E9A4
:1013E00011C0772321F09EE8872F762F05C0662352
:1013F00071F096E8862F70E060E02AF09A95660F0B
:10140000771F881FDAF7880F9695879597F90895C3
:1014100097F99F6780E870E060E008959FEF80ECA7
:10142000089500240A94161617061806090608954A
:1014300000240A9412161306140605060895092EB0
:101440000394000C11F4882352F0BB0F40F4BF2B1F
:1014500011F460FF04C06F5F7F4F8F4F9F4F08955F
:1014600057FD9058440F551F59F05F3F71F0479555
:10147000880F97FB991F61F09F3F79F0879508953A
:10148000121613061406551FF2CF4695F1DF08C059
:10149000161617061806991FF1CF86957105610576
:1014A00008940895E894BB2766277727CB0197F91E
:1014B00008950E946C0A0C941F0A0E94110A38F0C9
:1014C0000E94180A20F0952311F00C94080A0C943D
:1014D0000E0A11240C94530A0E94300A70F3959F4F
:1014E000C1F3950F50E0551F629FF001729FBB271B
:1014F000F00DB11D639FAA27F00DB11DAA1F649FB7
:101500006627B00DA11D661F829F2227B00DA11D69
:10151000621F739FB00DA11D621F839FA00D611DEF
:10152000221F749F3327A00D611D231F849F600D10
:10153000211D822F762F6A2F11249F5750409AF039
:10154000F1F088234AF0EE0FFF1FBB1F661F771FC5
:10155000881F91505040A9F79E3F510580F00C9490
:10156000080A0C94530A5F3FE4F3983ED4F386953F
:1015700077956795B795F795E7959F5FC1F7FE2B30
:10158000880F911D9695879597F90895052E97FBDD
:101590001EF400940E94DD0A57FD07D00E94030B41
:1015A00007FC03D04EF40C94DD0A5095409530951D
:1015B00021953F4F4F4F5F4F0895909580957095BF
:1015C00061957F4F8F4F9F4F08950E94ED0A3323FF
:1015D00012F48A1B9B0B0C94FE0AA29FB001B39FCE
:1015E000C001A39F700D811D1124911DB29F700D2C
:1015F000811D1124911D08950E94ED0AB7FF0895E1
:10160000821B930B0895A1E21A2EAA1BBB1BFD019E
:101610000DC0AA1FBB1FEE1FFF1FA217B307E407D1
:10162000F50720F0A21BB30BE40BF50B661F771F29
:10163000881F991F1A9469F7609570958095909509
:0E1640009B01AC01BD01CF010895F894FFCFCE
:10164E0043616C63756C61746F722E0030004D6176
:10165E007468204572726F7200000004000E000460
:10166E00000000110A040A11000000000000000032
:10167E00000C0D0E0F1A1B1C1D373839033435366E
:10168E00023132332D43303D2B00000000000000AC
:10169E000000000000020202020000000000000034
:0A16AE000000000000000000000032
:00000001FF
