:100000000C9431000C944E000C944E000C944E0055
:100010000C944E000C944E000C944E000C944E0028
:100020000C944E000C944E000C944E000C944E0018
:100030000C944E000C944E000C944E000C944E0008
:100040000C944E000C944E000C944E000C944E00F8
:100050000C944E00B503E8031A0449049204DB042F
:10006000090511241FBECFE5D8E0DEBFCDBF11E0EA
:10007000A0E6B0E0ECEDF4E102C005900D92AC36E4
:10008000B107D9F721E0ACE6B1E001C01D92AD3770
:10009000B207E1F70E941A0A0C946C0A0C94000053
:1000A000FC0180818823E1F090E001C0922F21E0E3
:1000B000290FDF01A20FB11D8C918111F7CF992378
:1000C0008CF031E0DF01A90FB11D97FDBA952C919D
:1000D0002053239F800D1124330F91509AF70895D8
:1000E00080E0089580E008950E94A60560E080E029
:1000F0000E94B405E0916D01F0E0EE0FFF1FEE0FDE
:10010000FF1FE750FF4F808191810E94450760E00B
:1001100081E00E94B405E0916D01F0E0EE0FFF1F59
:10012000EE0FFF1FE750FF4F828193810E9445072A
:1001300065E080E00E94B40510926000EFE6F1E017
:1001400089E791E01192E817F907E1F710926E0143
:1001500010926C0185E080936100089590ED980FF6
:100160009A3050F4E0916E0191E09E0F90936E01F1
:10017000F0E0E159FE4F80830E94B406089580911B
:100180006D01811155C080916300882301F1813098
:1001900009F04CC10E94A60560E080E00E94B40511
:1001A00084E790E00E94450762E081E00E94B40588
:1001B00085EA90E00E94450761E081E00E94B40575
:1001C0008EE70E94B40681E08093620008958091DA
:1001D0006200882381F0813009F028C161E00E942B
:1001E000B00761E080E00E94B4058EE70E94B4068B
:1001F0001092620008950E94A60560E080E00E94CF
:10020000B40584E790E00E94450762E081E00E9427
:10021000B40585EA90E00E94450761E081E00E9414
:10022000B4058EE70E94B40681E0809362000895D1
:10023000853009F055C0809163008823A9F1813091
:1002400009F0F4C080916200882319F0813081F0B8
:10025000089561E080E00E94B00761E081E00E94C3
:10026000B4058EE70E94B40681E080936200089591
:100270000E94A60562E080E00E94B4058DED90E04A
:100280000E94450761E081E00E94B4058EE70E946C
:10029000B40681E08093620062E00E94B4058BEEB8
:1002A00090E00E94450708950E94A60562E080E064
:1002B0000E94B4058DED90E00E94450761E081E069
:1002C0000E94B4058EE70E94B40681E0809362002C
:1002D00062E00E94B4058BEE90E00E94450708950D
:1002E00080916300882309F454C0813009F09EC0D6
:1002F000809162008823F1F1813009F097C00E945B
:10030000A60562E080E00E94B40520916D0130E016
:1003100021503109220F331FC901880F991F880FFF
:10032000991F880F991F821B930B8B559F4F0E941B
:10033000450762E081E00E94B40520916D0130E044
:10034000220F331FC901880F991F880F991F880F2B
:10035000991F821B930B8B559F4F0E94450761E0AD
:1003600081E00E94B4058EE70E94B40681E080938C
:100370006200089561E080E00E94B00761E081E0E2
:100380000E94B4058EE70E94B40681E0809362006B
:10039000089580916200882381F0813009F046C081
:1003A00061E00E94B00761E080E00E94B4058EE742
:1003B0000E94B4061092620008950E94A60562E0B1
:1003C00080E00E94B40520916D0130E0220F331FC0
:1003D000C901880F991F880F991F880F991F821BC9
:1003E000930B8B559F4F0E94450762E081E00E946E
:1003F000B40520916D0130E02F5F3F4F220F331F76
:10040000C901880F991F880F991F880F991F821B98
:10041000930B8B559F4F0E94450761E080E00E943F
:10042000B4058EE70E94B406109262000895909180
:100430006F01992361F090E09F5FE92FF0E0E159AF
:10044000FE4F20812111F8CF923008F090C090ED3E
:10045000980F9A3098F4E0916E0191E09E0F90937E
:100460006E01F0E0E159FE4F8083909161009F5F43
:10047000909361000E94B40680E008958F3289F461
:1004800010926C016091610080E00E94B405E091DF
:100490006C01F0E0E156FF4F80810E94B40680E0DD
:1004A00008958B32C9F4E0916E0181E08E0F809344
:1004B0006E01F0E0E159FE4FA0916C01B0E0A15651
:1004C000BF4F8C918083809161008F5F809361002A
:1004D00010926C0180E008958A32F9F490916C01D9
:1004E0009F5F8BEA989F812D112486958695282FF2
:1004F000220F820F880F981B90936C01609161000E
:1005000080E00E94B405E0916C01F0E0E156FF4FFD
:1005100080810E94B40680E008958D3251F580916B
:100520006C01815018F080936C0103C085E08093CA
:100530006C0190916C018BEA989F812D1124869516
:100540008695282F220F820F880F981B90936C019D
:100550006091610080E00E94B405E0916C01F0E0E0
:10056000E156FF4F80810E94B40680E0089588E044
:10057000089584E0089590916F01992359F090E0D7
:100580009F5FE92FF0E0E159FE4F20812111F8CF64
:10059000983090F490ED980F923080F4E0916E01D5
:1005A00091E09E0F90936E01F0E0E159FE4F808341
:1005B0000E94B40680E0089588E0089584E00895DC
:1005C000FC018081882311F190E001C0922F21E08D
:1005D000290FDF01A20FB11D8C918111F7CF992353
:1005E000BCF031E0DF01A90FB11D97FDBA954C9128
:1005F00020ED240F2A3010F029EC240F239F800DCA
:1006000011243295307F91506AF7089580E0089563
:1006100080E008951092790181E080936300109248
:100620006D0180936200EFE6F1E089E791E01192BD
:10063000E817F907E1F781E08093600010926C0100
:1006400085E0809361000E94A60560E080E00E9442
:10065000B40582E890E00E94450761E081E00E94D5
:10066000B4058CE890E00E9445072FEF81EE94E0FE
:10067000215080409040E1F700C000008EE20E94CF
:10068000B4062FEF81EE94E0215080409040E1F7D6
:1006900000C000008EE20E94B4062FEF81EE94E0CD
:1006A000215080409040E1F700C000000E94A60564
:1006B0000E94BF0061E0809162000E94B4058EE755
:1006C0000E94B4060895CF93DF930E940E08C82FAE
:1006D000843509F4CEC18334D9F51092790181E0D3
:1006E0008093630010926D0180936200EFE6F1E069
:1006F00089E791E011928E179F07E1F781E08093DF
:10070000600010926C0185E0809361000E94A60554
:100710000E94BF0061E0809162000E94B4058EE7F4
:100720000E94B40680917901833009F4B2C038F494
:10073000813009F44DC0823009F47CC09AC1853003
:1007400009F439C108F4EEC0863009F462C191C1E0
:10075000E09179018E2F90E08730910508F089C1F2
:10076000FC01E65DFF4F0C94440AC23381F4809192
:100770006D018F5F863019F080936D0102C0109279
:100780006D0181E0809363000E94BF0072C1C83395
:1007900079F480916D01815018F080936D0103C050
:1007A00085E080936D01109263000E94BF0061C1DB
:1007B000CD3309F05EC1E0916D01F0E0EF5EFE4FD8
:1007C0008081809379010E9474001092600051C171
:1007D0008091600081110E947400CD33C9F4E091D2
:1007E0006E01F0E0E159FE4F10828FE691E00E9429
:1007F0005000C82F65E081E00E94B4056C2F70E0C6
:1008000080E090E00E94B80681E08093600031C1F2
:100810008C2F0E94BB02883009F02BC165E081E07B
:100820000E94B40587E990E00E94450781E080932B
:1008300060001FC18091600081110E947400CD335F
:10084000B1F4E0916E01F0E0E159FE4F10828FE6C5
:1008500091E00E945000C82F65E081E00E94B4053D
:100860008C2F0E94770781E08093600002C18C2F5B
:100870000E94BB02883009F0FCC065E081E00E9464
:10088000B40587E990E00E94450781E0809360000D
:10089000F0C08091600081110E947400CD33F1F5A9
:1008A000E0916E01F0E0E159FE4F108280916F01FE
:1008B0008823F1F090E0C0E0D0E09E01220F331FCA
:1008C000CC0FDD1FCC0FDD1FCC0FDD1FC20FD31FE0
:1008D0008053C80FD11D9F5FE92FF0E0E159FE4F13
:1008E00080818111EACFCF3FD10509F058F402C0D1
:1008F000C0E0D0E065E081E00E94B4058C2F0E944A
:100900005D0708C065E081E00E94B40587E990E0DA
:100910000E94450781E080936000ABC08C2F0E944D
:10092000AE00A7C08091600081110E947400CD3399
:10093000F1F5E0916E01F0E0E159FE4F10828091F7
:100940006F018823F1F090E0C0E0D0E09E01220F1B
:10095000331FCC0FDD1FCC0FDD1FCC0FDD1FC20FEF
:10096000D31F8053C80FD11D9F5FE92FF0E0E159DD
:10097000FE4F80818111EACFCF3FD10509F058F4B5
:1009800002C0C0E0D0E065E081E00E94B4058C2F99
:100990000E94770708C065E081E00E94B40587E9FE
:1009A00090E00E94450781E08093600062C08C2F38
:1009B0000E94AE005EC08091600081110E947400B0
:1009C000CD33B1F4E0916E01F0E0E159FE4F1082B9
:1009D0008FE691E00E94E002C82F65E081E00E946E
:1009E000B4058C2F0E945D0781E08093600041C0B8
:1009F0008C2F0E9417028830E1F565E081E00E94AB
:100A0000B40587E990E00E94450781E0809360008B
:100A100030C08091600081110E947400CD33C9F410
:100A2000E0916E01F0E0E159FE4F10828FE691E017
:100A30000E94E002C82F65E081E00E94B4056C2F9F
:100A400070E080E090E00E94B80681E08093600052
:100A500010C08C2F0E941702883059F465E081E0A5
:100A60000E94B40587E990E00E94450781E08093E9
:100A70006000DF91CF910895CF93C82F60E08FE0A1
:100A80000E9462098FEC97E00197F1F700C0000027
:100A900060E081E00E9462096C2F661F6627661F76
:100AA00086E00E946209C6FB662760F985E00E9425
:100AB0006209C5FB662760F984E00E946209C4FBF5
:100AC000662760F983E00E94620961E082E00E948B
:100AD00062098FE99FE00197F1F700C0000060E034
:100AE00082E00E9462098FE99FE00197F1F700C060
:100AF0000000C3FB662760F986E00E946209C2FB22
:100B0000662760F985E00E946209C1FB662760F9EB
:100B100084E00E9462096C2F617083E00E94620988
:100B200061E082E00E9462098FE99FE00197F1F79E
:100B300000C0000060E082E00E9462098FE99FE04F
:100B40000197F1F700C00000CF91089581E00E9465
:100B50003C058FE99FE00197F1F700C0000010927B
:100B60007C0110927B01089580937B0160937C014E
:100B7000811106C080E8860F0E943C0580E0089540
:100B8000813031F480EC860F0E943C0580E00895AE
:100B900084E00895CF93DF93C82FD62F613031F4CE
:100BA00060917C0180917B010E94B40560E08FE040
:100BB0000E9462098FEC97E00197F1F700C00000F6
:100BC00061E081E00E9462096C2F661F6627661F44
:100BD00086E00E946209C6FB662760F985E00E94F4
:100BE0006209C5FB662760F984E00E946209C4FBC4
:100BF000662760F983E00E94620961E082E00E945A
:100C000062098FE99FE00197F1F700C0000060E002
:100C100082E00E9462098FE99FE00197F1F700C02E
:100C20000000C3FB662760F986E00E946209C2FBF0
:100C3000662760F985E00E946209C1FB662760F9BA
:100C400084E00E9462096C2F617083E00E94620957
:100C500061E082E00E9462098FE99FE00197F1F76D
:100C600000C0000060E082E00E9462098FE99FE01E
:100C70000197F1F700C00000D130B1F480917C0100
:100C80008F3079F480917B01813029F410927B01BF
:100C900010927C0109C08F5F80937B0110927C01D0
:100CA00003C08F5F80937C01DF91CF9108950F93F4
:100CB0001F93CF93DF9310927C0110927B011092CF
:100CC0007A012FE788E391E0215080409040E1F7DE
:100CD00000C0000060E08FE00E9462098FEC97E0A6
:100CE0000197F1F700C0000082E00E943C0588E215
:100CF0000E943C058FEC97E00197F1F700C00000DF
:100D00008CE00E943C058FEC97E00197F1F700C062
:100D1000000081E00E943C058FE99FE00197F1F718
:100D200000C0000086E00E943C0580E40E943C0573
:100D3000CCE2D1E004E311E060E089910E94CA05B1
:100D4000C017D107C9F780917A018F5F80937A012C
:100D500080E80E943C0510927C0110927B01DF919B
:100D6000CF911F910F91089561E00E94CA050895E7
:100D70004F925F926F927F92AF92BF92CF92DF922B
:100D8000EF92FF920F931F93CF93DF93CDB7DEB710
:100D90002B970FB6F894DEBF0FBECDBF6B017C0161
:100DA000FE0131968BE0DF011D928A95E9F7FF2065
:100DB0000CF04FC08DE20E94B406F094E094D09401
:100DC000C094C11CD11CE11CF11CC114D104E1046C
:100DD000F10421F480E30E94B40642C010E00F2E1B
:100DE000FAE04F2E512C612C712CF02D01C0102FE8
:100DF00001E0010FAA24A394B12CAC0EBD1EA10EDC
:100E0000B11C17FDBA94C701B601A30192010E945B
:100E1000250A605DF5016083C22ED32EE42EF52EE7
:100E2000C114D104E104F10411F71123CCF0FF2423
:100E3000FA94F10EE1E0F0E0EC0FFD1FE10FF11D7F
:100E400017FDFA9580810E94B4061F2DFF207CF7C4
:100E500007C0C114D104E104F10409F0BFCFBACF37
:100E60002B960FB6F894DEBF0FBECDBFDF91CF91AA
:100E70001F910F91FF90EF90DF90CF90BF90AF90B8
:100E80007F906F905F904F9008950F931F93CF9333
:100E9000FC01892B71F08081882359F08F01C0E01B
:100EA0000E94B406CF5FF801EC0FF11D8081811123
:100EB000F7CFCF911F910F9108950F931F93CF9369
:100EC000DF93C7E0D0E0082F10E0C8010C2E02C06D
:100ED000959587950A94E2F78170805D0E94B4062B
:100EE000219798F7DF91CF911F910F9108951F934C
:100EF000CF93DF93CDB7DEB760970FB6F894DEBF20
:100F00000FBECDBF182F80E1E4E6F0E0DE011196C0
:100F100001900D928A95E1F789E291E00E944507E0
:100F2000812F82958F70E1E0F0E0EC0FFD1FE80F5C
:100F3000F11D80810E94B4061F70E1E0F0E0EC0F2B
:100F4000FD1FE10FF11D80810E94B40660960FB66F
:100F5000F894DEBF0FBECDBFDF91CF911F910895F2
:100F60000E94B405843009F457C060E08FE00E940D
:100F700062098FEC97E00197F1F700C0000061E093
:100F800081E00E94620960E086E00E94620960E000
:100F900085E00E94620960E084E00E94620960E0EE
:100FA00083E00E94620961E082E00E9462098FE9A9
:100FB0009FE00197F1F700C0000060E082E00E942E
:100FC00062098FE99FE00197F1F700C0000060E03F
:100FD00086E00E94620960E085E00E94620960E0AC
:100FE00084E00E94620960E083E00E94620961E09F
:100FF00082E00E9462098FE99FE00197F1F700C04B
:10100000000060E082E00E9462098FE99FE00197A2
:10101000F1F700C0000080E0089508955F926F929C
:101020007F928F929F92AF92BF92CF92DF92EF9278
:10103000FF920F931F93CF93DF930F2EF8E3AF2E02
:10104000F1E0BF2EF02D0CE311E0E50161E08991A4
:101050000E9462090C171D07C9F70F2EFCE3CF2E63
:10106000F1E0DF2EF02D0F2EFCE48F2EF1E09F2E0D
:10107000F02D0F2EF4E55F2EF02D0F2EF8E3EF2E5E
:10108000F1E0FF2EF02DF50161905F0160E0862D0B
:101090000E946209C4E3D1E086017990872D0E9405
:1010A000E709811107C0872D0E94E7098823D9F33A
:1010B000F80150800F5F1F4FCE15DF0571F761E01B
:1010C000862D0E946209F4E0CF0ED11CC814D90409
:1010D000D1F6852DDF91CF911F910F91FF90EF9069
:1010E000DF90CF90BF90AF909F908F907F906F9048
:1010F0005F900895ECE4F1E080E041E050E09191F0
:10110000282F269526952695382F3770913009F48B
:1011100049C020F0923009F489C0CFC02130A9F035
:1011200028F0223009F1233071F1C7C09AB3BA0117
:1011300002C0660F771F3A95E2F79B01962B9ABB88
:101140009BB3209529232BBBB8C097B3BA0102C02B
:10115000660F771F3A95E2F79B01962B97BB98B3E2
:101160002095292328BBA9C094B3BA0102C0660FF9
:10117000771F3A95E2F79B01962B94BB95B3209588
:10118000292325BB9AC091B3BA0102C0660F771F0D
:101190003A95E2F79B01962B91BB92B320952923B8
:1011A00022BB8BC02130A9F028F0223009F1233076
:1011B00071F183C09AB3BA0102C0660F771F3A95E6
:1011C000E2F79B01209592239ABB9BB329232BBB6B
:1011D00074C097B3BA0102C0660F771F3A95E2F761
:1011E0009B012095922397BB98B3292328BB65C008
:1011F00094B3BA0102C0660F771F3A95E2F79B01DC
:101200002095922394BB95B3292325BB56C091B357
:10121000BA0102C0660F771F3A95E2F79B0120954D
:10122000922391BB92B3292322BB47C02130B1F056
:1012300028F0223019F1233089F13FC09AB3BA0166
:1012400002C0660F771F3A95E2F79B01362F309563
:1012500093239ABB9BB3292B2BBB2FC097B3BA0107
:1012600002C0660F771F3A95E2F79B01362F309543
:10127000932397BB98B3292B28BB1FC094B3BA0103
:1012800002C0660F771F3A95E2F79B01362F309523
:10129000932394BB95B3292B25BB0FC091B3BA01FF
:1012A00002C0660F771F3A95E2F79B01362F309503
:1012B000932391BB92B3292B22BB8F5F803209F01D
:1012C0001ECF0895982F96959695969587706130C4
:1012D000E1F5913099F028F09230E9F0933041F146
:1012E00008954BB321E030E0B90102C0660F771FCB
:1012F0008A95E2F7CB01842B8BBB089548B321E09C
:1013000030E0B90102C0660F771F8A95E2F7CB0182
:10131000842B88BB089545B321E030E0B90102C0B9
:10132000660F771F8A95E2F7CB01842B85BB089562
:1013300042B321E030E0B90102C0660F771F8A9501
:10134000E2F7CB01842B82BB089561113FC091303D
:10135000A1F028F09230F9F0933059F108954BB391
:1013600021E030E0B90102C0660F771F8A95E2F7ED
:10137000CB01809584238BBB089548B321E030E0F6
:10138000B90102C0660F771F8A95E2F7CB018095FD
:10139000842388BB089545B321E030E0B90102C041
:1013A000660F771F8A95E2F7CB018095842385BB72
:1013B000089542B321E030E0B90102C0660F771F03
:1013C0008A95E2F7CB018095842382BB0895282F6C
:1013D0002770869586958695813079F028F0823041
:1013E000A9F08330E1F024C089B390E002C0959564
:1013F00087952A95E2F78170089586B390E002C040
:10140000959587952A95E2F78170089583B390E0CA
:1014100002C0959587952A95E2F78170089580B36B
:1014200090E002C0959587952A95E2F7817008951E
:1014300080E008950E947A080E9457060E940D08D5
:101440000E940A030E946303FDCF052E97FB1EF442
:1014500000940E943C0A57FD07D00E944A0A07FCEC
:1014600003D04EF40C943C0A50954095309521954C
:101470003F4F4F4F5F4F08959095809570956195C0
:101480007F4F8F4F9F4F0895EE0FFF1F0590F491F0
:10149000E02D0994A1E21A2EAA1BBB1BFD010DC071
:1014A000AA1FBB1FEE1FFF1FA217B307E407F50714
:1014B00020F0A21BB30BE40BF50B661F771F881FF0
:1014C000991F1A9469F760957095809590959B0186
:0C14D000AC01BD01CF010895F894FFCFDE
:1014DC000105010130313233343536373839414268
:1014EC004344454643686F6F7365204D6F64653A9E
:1014FC0020004E756D65726963616C00436F6E768A
:10150C0065727465722E00496E76616C6964004177
:10151C00424344454642494E20746F2044454300A3
:10152C0000000042494E20746F20484558000000CE
:10153C000044454320746F2042494E000000004493
:10154C00454320746F20484558000000004845581A
:10155C0020746F2042494E0000000048455820740A
:10156C006F204445430000000023011D0123011797
:10157C00011D0123011D0117011701230117011D75
:10158C00010102030405064845583A20004445432E
:10159C003A200042494E3A2000307800000000000A
:1015AC00000000001A1B1C1D0C0D0E0F3738392FB4
:1015BC003435362A3132332D43303D2B00000000B8
:1015CC00000000000000000000000000000000000F
:0C15DC00000000000000020202020000FB
:00000001FF
